:100000000C9434000C94DA000C9401010C9446001A
:100010000C9446000C9446000C9446000C94460048
:100020000C9446000C9446000C9446000C94460038
:100030000C9446000C9446000C9446000C94460028
:100040000C9446000C9446000C9446000C94460018
:100050000C9446000C9446000C9446000C94460008
:100060000C9446000C94460011241FBECFEFD4E040
:10007000DEBFCDBF11E0A0E0B1E001C01D92A43011
:10008000B107E1F70E9438010C9470010C94000054
:10009000382F662359F1883058F42BB181E090E075
:1000A00002C0880F991F3A95E2F7282B2BB90895C3
:1000B000482F50E08E3068F425B14850504081E020
:1000C00090E002C0880F991F4A95E2F7282B25B9C6
:1000D000089528B14E50504081E090E002C0880F52
:1000E000991F4A95E2F7282B28B90895883060F4C3
:1000F0002BB181E090E002C0880F991F3A95E2F79A
:10010000809582238BB90895482F50E08E3070F48B
:1001100025B14850504081E090E002C0880F991FFF
:100120004A95E2F78095822385B9089528B14E500B
:10013000504081E090E002C0880F991F4A95E2F795
:100140008095822388B908958230C9F450930101C3
:1001500040930001623721F48091690081600BC0F7
:10016000663621F480916900826005C0633629F407
:1001700080916900836080936900E89A08958330D4
:10018000C1F45093030140930201623721F480913E
:10019000690084600BC0663621F480916900886034
:1001A00005C0633629F4809169008C6080936900F2
:1001B000E99A08951F920F920FB60F9211242F9370
:1001C0003F934F935F936F937F938F939F93AF93DF
:1001D000BF93EF93FF93E0910001F0910101099526
:1001E000FF91EF91BF91AF919F918F917F916F910F
:1001F0005F914F913F912F910F900FBE0F901F90E5
:1002000018951F920F920FB60F9211242F933F93C0
:100210004F935F936F937F938F939F93AF93BF930E
:10022000EF93FF93E0910201F09103010995FF9193
:10023000EF91BF91AF919F918F917F916F915F915E
:100240004F913F912F910F900FBE0F901F901895D7
:100250008091C00085FFFCCF8AE78093C600089597
:100260008091C00085FFFCCF8AE68093C600089588
:10027000CF93DF9325988091C10088698093C10056
:100280008091C20086608093C2001092C50083E313
:100290008093C400789482E066E648E251E00E94D0
:1002A000A40083E063E640E351E00E94A400C0E9BB
:1002B000D1E08DE060E00E94480088E893E1FE0113
:1002C0003197F1F70197D9F78DE061E00E9448007E
:1002D00088E893E1FE013197F1F70197D9F7E9CF6B
:0402E000F894FFCFC0
:00000001FF
